{
  "_format": "hh-sol-artifact-1",
  "contractName": "MyEpicNFT",
  "sourceName": "contracts/MyEpicNFT.sol",
  "abi": [
    {
      "inputs": [],
      "stateMutability": "nonpayable",
      "type": "constructor"
    },
    {
      "anonymous": false,
      "inputs": [
        {
          "indexed": true,
          "internalType": "address",
          "name": "owner",
          "type": "address"
        },
        {
          "indexed": true,
          "internalType": "address",
          "name": "approved",
          "type": "address"
        },
        {
          "indexed": true,
          "internalType": "uint256",
          "name": "tokenId",
          "type": "uint256"
        }
      ],
      "name": "Approval",
      "type": "event"
    },
    {
      "anonymous": false,
      "inputs": [
        {
          "indexed": true,
          "internalType": "address",
          "name": "owner",
          "type": "address"
        },
        {
          "indexed": true,
          "internalType": "address",
          "name": "operator",
          "type": "address"
        },
        {
          "indexed": false,
          "internalType": "bool",
          "name": "approved",
          "type": "bool"
        }
      ],
      "name": "ApprovalForAll",
      "type": "event"
    },
    {
      "anonymous": false,
      "inputs": [
        {
          "indexed": true,
          "internalType": "address",
          "name": "from",
          "type": "address"
        },
        {
          "indexed": true,
          "internalType": "address",
          "name": "to",
          "type": "address"
        },
        {
          "indexed": true,
          "internalType": "uint256",
          "name": "tokenId",
          "type": "uint256"
        }
      ],
      "name": "Transfer",
      "type": "event"
    },
    {
      "inputs": [
        {
          "internalType": "address",
          "name": "to",
          "type": "address"
        },
        {
          "internalType": "uint256",
          "name": "tokenId",
          "type": "uint256"
        }
      ],
      "name": "approve",
      "outputs": [],
      "stateMutability": "nonpayable",
      "type": "function"
    },
    {
      "inputs": [
        {
          "internalType": "address",
          "name": "owner",
          "type": "address"
        }
      ],
      "name": "balanceOf",
      "outputs": [
        {
          "internalType": "uint256",
          "name": "",
          "type": "uint256"
        }
      ],
      "stateMutability": "view",
      "type": "function"
    },
    {
      "inputs": [
        {
          "internalType": "uint256",
          "name": "tokenId",
          "type": "uint256"
        }
      ],
      "name": "getApproved",
      "outputs": [
        {
          "internalType": "address",
          "name": "",
          "type": "address"
        }
      ],
      "stateMutability": "view",
      "type": "function"
    },
    {
      "inputs": [
        {
          "internalType": "address",
          "name": "owner",
          "type": "address"
        },
        {
          "internalType": "address",
          "name": "operator",
          "type": "address"
        }
      ],
      "name": "isApprovedForAll",
      "outputs": [
        {
          "internalType": "bool",
          "name": "",
          "type": "bool"
        }
      ],
      "stateMutability": "view",
      "type": "function"
    },
    {
      "inputs": [],
      "name": "makeAnEpicNFT",
      "outputs": [],
      "stateMutability": "nonpayable",
      "type": "function"
    },
    {
      "inputs": [],
      "name": "name",
      "outputs": [
        {
          "internalType": "string",
          "name": "",
          "type": "string"
        }
      ],
      "stateMutability": "view",
      "type": "function"
    },
    {
      "inputs": [
        {
          "internalType": "uint256",
          "name": "tokenId",
          "type": "uint256"
        }
      ],
      "name": "ownerOf",
      "outputs": [
        {
          "internalType": "address",
          "name": "",
          "type": "address"
        }
      ],
      "stateMutability": "view",
      "type": "function"
    },
    {
      "inputs": [
        {
          "internalType": "uint256",
          "name": "tokenId",
          "type": "uint256"
        }
      ],
      "name": "pickRandomWord",
      "outputs": [
        {
          "internalType": "string",
          "name": "",
          "type": "string"
        }
      ],
      "stateMutability": "view",
      "type": "function"
    },
    {
      "inputs": [
        {
          "internalType": "address",
          "name": "from",
          "type": "address"
        },
        {
          "internalType": "address",
          "name": "to",
          "type": "address"
        },
        {
          "internalType": "uint256",
          "name": "tokenId",
          "type": "uint256"
        }
      ],
      "name": "safeTransferFrom",
      "outputs": [],
      "stateMutability": "nonpayable",
      "type": "function"
    },
    {
      "inputs": [
        {
          "internalType": "address",
          "name": "from",
          "type": "address"
        },
        {
          "internalType": "address",
          "name": "to",
          "type": "address"
        },
        {
          "internalType": "uint256",
          "name": "tokenId",
          "type": "uint256"
        },
        {
          "internalType": "bytes",
          "name": "_data",
          "type": "bytes"
        }
      ],
      "name": "safeTransferFrom",
      "outputs": [],
      "stateMutability": "nonpayable",
      "type": "function"
    },
    {
      "inputs": [
        {
          "internalType": "address",
          "name": "operator",
          "type": "address"
        },
        {
          "internalType": "bool",
          "name": "approved",
          "type": "bool"
        }
      ],
      "name": "setApprovalForAll",
      "outputs": [],
      "stateMutability": "nonpayable",
      "type": "function"
    },
    {
      "inputs": [
        {
          "internalType": "bytes4",
          "name": "interfaceId",
          "type": "bytes4"
        }
      ],
      "name": "supportsInterface",
      "outputs": [
        {
          "internalType": "bool",
          "name": "",
          "type": "bool"
        }
      ],
      "stateMutability": "view",
      "type": "function"
    },
    {
      "inputs": [],
      "name": "symbol",
      "outputs": [
        {
          "internalType": "string",
          "name": "",
          "type": "string"
        }
      ],
      "stateMutability": "view",
      "type": "function"
    },
    {
      "inputs": [
        {
          "internalType": "uint256",
          "name": "tokenId",
          "type": "uint256"
        }
      ],
      "name": "tokenURI",
      "outputs": [
        {
          "internalType": "string",
          "name": "",
          "type": "string"
        }
      ],
      "stateMutability": "view",
      "type": "function"
    },
    {
      "inputs": [
        {
          "internalType": "address",
          "name": "from",
          "type": "address"
        },
        {
          "internalType": "address",
          "name": "to",
          "type": "address"
        },
        {
          "internalType": "uint256",
          "name": "tokenId",
          "type": "uint256"
        }
      ],
      "name": "transferFrom",
      "outputs": [],
      "stateMutability": "nonpayable",
      "type": "function"
    }
  ],
  "bytecode": "0x608060405260405180610160016040528061012f815260200162003d1d61012f91396008908051906020019062000038929190620004e5565b506040518061018001604052806040518060400160405280600581526020017f4c6f72656d00000000000000000000000000000000000000000000000000000081525081526020016040518060400160405280600581526020017f697073756d00000000000000000000000000000000000000000000000000000081525081526020016040518060400160405280600581526020017f646f6c6f7200000000000000000000000000000000000000000000000000000081525081526020016040518060400160405280600381526020017f736974000000000000000000000000000000000000000000000000000000000081525081526020016040518060400160405280600481526020017f616d65740000000000000000000000000000000000000000000000000000000081525081526020016040518060400160405280600b81526020017f636f6e736563746574757200000000000000000000000000000000000000000081525081526020016040518060400160405280600a81526020017f61646970697363696e670000000000000000000000000000000000000000000081525081526020016040518060400160405280600581526020017f656c69742e00000000000000000000000000000000000000000000000000000081525081526020016040518060400160405280600a81526020017f566573746962756c756d0000000000000000000000000000000000000000000081525081526020016040518060400160405280600681526020017f766172697573000000000000000000000000000000000000000000000000000081525081526020016040518060400160405280600981526020017f6665726d656e74756d000000000000000000000000000000000000000000000081525081526020016040518060400160405280600381526020017f6c656f0000000000000000000000000000000000000000000000000000000000815250815250600990600c6200031992919062000576565b503480156200032757600080fd5b506040518060400160405280600d81526020017f4c6f72656d497073756d4e4654000000000000000000000000000000000000008152506040518060400160405280600581526020017f4c4f52454d0000000000000000000000000000000000000000000000000000008152508160009080519060200190620003ac929190620004e5565b508060019080519060200190620003c5929190620004e5565b505050620004136040518060400160405280601981526020017f4c6f72656d20697073756d204e465420636f6e74726163742e000000000000008152506200041960201b62000d8e1760201c565b62000797565b620004b981604051602401620004309190620006ab565b6040516020818303038152906040527f41304fac000000000000000000000000000000000000000000000000000000007bffffffffffffffffffffffffffffffffffffffffffffffffffffffff19166020820180517bffffffffffffffffffffffffffffffffffffffffffffffffffffffff8381831617835250505050620004bc60201b60201c565b50565b60008151905060006a636f6e736f6c652e6c6f679050602083016000808483855afa5050505050565b828054620004f39062000721565b90600052602060002090601f01602090048101928262000517576000855562000563565b82601f106200053257805160ff191683800117855562000563565b8280016001018555821562000563579182015b828111156200056257825182559160200191906001019062000545565b5b509050620005729190620005dd565b5090565b828054828255906000526020600020908101928215620005ca579160200282015b82811115620005c9578251829080519060200190620005b8929190620004e5565b509160200191906001019062000597565b5b509050620005d99190620005fc565b5090565b5b80821115620005f8576000816000905550600101620005de565b5090565b5b8082111562000620576000818162000616919062000624565b50600101620005fd565b5090565b508054620006329062000721565b6000825580601f1062000646575062000667565b601f016020900490600052602060002090810190620006669190620005dd565b5b50565b60006200067782620006cf565b620006838185620006da565b935062000695818560208601620006eb565b620006a08162000786565b840191505092915050565b60006020820190508181036000830152620006c781846200066a565b905092915050565b600081519050919050565b600082825260208201905092915050565b60005b838110156200070b578082015181840152602081019050620006ee565b838111156200071b576000848401525b50505050565b600060028204905060018216806200073a57607f821691505b6020821081141562000751576200075062000757565b5b50919050565b7f4e487b7100000000000000000000000000000000000000000000000000000000600052602260045260246000fd5b6000601f19601f8301169050919050565b61357680620007a76000396000f3fe608060405234801561001057600080fd5b50600436106100f55760003560e01c80636352211e11610097578063b88d4fde11610066578063b88d4fde14610296578063c87b56dd146102b2578063de9d132f146102e2578063e985e9c5146102ec576100f5565b80636352211e146101fc57806370a082311461022c57806395d89b411461025c578063a22cb4651461027a576100f5565b8063095ea7b3116100d3578063095ea7b31461017857806323b872dd146101945780633e1831dd146101b057806342842e0e146101e0576100f5565b806301ffc9a7146100fa57806306fdde031461012a578063081812fc14610148575b600080fd5b610114600480360381019061010f91906121ba565b61031c565b60405161012191906127e0565b60405180910390f35b6101326103fe565b60405161013f91906127fb565b60405180910390f35b610162600480360381019061015d919061220c565b610490565b60405161016f9190612779565b60405180910390f35b610192600480360381019061018d919061217e565b610515565b005b6101ae60048036038101906101a99190612078565b61062d565b005b6101ca60048036038101906101c5919061220c565b61068d565b6040516101d791906127fb565b60405180910390f35b6101fa60048036038101906101f59190612078565b6107ab565b005b6102166004803603810190610211919061220c565b6107cb565b6040516102239190612779565b60405180910390f35b61024660048036038101906102419190612013565b61087d565b6040516102539190612a5b565b60405180910390f35b610264610935565b60405161027191906127fb565b60405180910390f35b610294600480360381019061028f9190612142565b6109c7565b005b6102b060048036038101906102ab91906120c7565b6109dd565b005b6102cc60048036038101906102c7919061220c565b610a3f565b6040516102d991906127fb565b60405180910390f35b6102ea610b91565b005b6103066004803603810190610301919061203c565b610cfa565b60405161031391906127e0565b60405180910390f35b60007f80ac58cd000000000000000000000000000000000000000000000000000000007bffffffffffffffffffffffffffffffffffffffffffffffffffffffff1916827bffffffffffffffffffffffffffffffffffffffffffffffffffffffff191614806103e757507f5b5e139f000000000000000000000000000000000000000000000000000000007bffffffffffffffffffffffffffffffffffffffffffffffffffffffff1916827bffffffffffffffffffffffffffffffffffffffffffffffffffffffff1916145b806103f757506103f682610e27565b5b9050919050565b60606000805461040d90612cef565b80601f016020809104026020016040519081016040528092919081815260200182805461043990612cef565b80156104865780601f1061045b57610100808354040283529160200191610486565b820191906000526020600020905b81548152906001019060200180831161046957829003601f168201915b5050505050905090565b600061049b82610e91565b6104da576040517f08c379a00000000000000000000000000000000000000000000000000000000081526004016104d1906129db565b60405180910390fd5b6004600083815260200190815260200160002060009054906101000a900473ffffffffffffffffffffffffffffffffffffffff169050919050565b6000610520826107cb565b90508073ffffffffffffffffffffffffffffffffffffffff168373ffffffffffffffffffffffffffffffffffffffff161415610591576040517f08c379a000000000000000000000000000000000000000000000000000000000815260040161058890612a1b565b60405180910390fd5b8073ffffffffffffffffffffffffffffffffffffffff166105b0610efd565b73ffffffffffffffffffffffffffffffffffffffff1614806105df57506105de816105d9610efd565b610cfa565b5b61061e576040517f08c379a00000000000000000000000000000000000000000000000000000000081526004016106159061291b565b60405180910390fd5b6106288383610f05565b505050565b61063e610638610efd565b82610fbe565b61067d576040517f08c379a000000000000000000000000000000000000000000000000000000000815260040161067490612a3b565b60405180910390fd5b61068883838361109c565b505050565b606060006106c161069d84611303565b6040516020016106ad91906126f0565b6040516020818303038152906040526114b0565b9050600980549050816106d49190612d9b565b905060098181548110610710577f4e487b7100000000000000000000000000000000000000000000000000000000600052603260045260246000fd5b90600052602060002001805461072590612cef565b80601f016020809104026020016040519081016040528092919081815260200182805461075190612cef565b801561079e5780601f106107735761010080835404028352916020019161079e565b820191906000526020600020905b81548152906001019060200180831161078157829003601f168201915b5050505050915050919050565b6107c6838383604051806020016040528060008152506109dd565b505050565b6000806002600084815260200190815260200160002060009054906101000a900473ffffffffffffffffffffffffffffffffffffffff169050600073ffffffffffffffffffffffffffffffffffffffff168173ffffffffffffffffffffffffffffffffffffffff161415610874576040517f08c379a000000000000000000000000000000000000000000000000000000000815260040161086b9061295b565b60405180910390fd5b80915050919050565b60008073ffffffffffffffffffffffffffffffffffffffff168273ffffffffffffffffffffffffffffffffffffffff1614156108ee576040517f08c379a00000000000000000000000000000000000000000000000000000000081526004016108e59061293b565b60405180910390fd5b600360008373ffffffffffffffffffffffffffffffffffffffff1673ffffffffffffffffffffffffffffffffffffffff168152602001908152602001600020549050919050565b60606001805461094490612cef565b80601f016020809104026020016040519081016040528092919081815260200182805461097090612cef565b80156109bd5780601f10610992576101008083540402835291602001916109bd565b820191906000526020600020905b8154815290600101906020018083116109a057829003601f168201915b5050505050905090565b6109d96109d2610efd565b83836114e3565b5050565b6109ee6109e8610efd565b83610fbe565b610a2d576040517f08c379a0000000000000000000000000000000000000000000000000000000008152600401610a2490612a3b565b60405180910390fd5b610a3984848484611650565b50505050565b6060610a4a82610e91565b610a89576040517f08c379a0000000000000000000000000000000000000000000000000000000008152600401610a80906129bb565b60405180910390fd5b6000600660008481526020019081526020016000208054610aa990612cef565b80601f0160208091040260200160405190810160405280929190818152602001828054610ad590612cef565b8015610b225780601f10610af757610100808354040283529160200191610b22565b820191906000526020600020905b815481529060010190602001808311610b0557829003601f168201915b505050505090506000610b336116ac565b9050600081511415610b49578192505050610b8c565b600082511115610b7e578082604051602001610b6692919061269d565b60405160208183030381529060405292505050610b8c565b610b87846116c3565b925050505b919050565b6000610b9d600761176a565b90506000610baa8261068d565b90506000600882604051602001610bc29291906126c1565b60405160208183030381529060405290506000610c0783610be284611778565b604051602001610bf3929190612712565b604051602081830303815290604052611778565b9050600081604051602001610c1c9190612757565b6040516020818303038152906040529050610c6b6040518060400160405280601581526020017f0a2d2d2d2d2d2d2d2d2d2d2d2d2d2d2d2d2d2d2d2d0000000000000000000000815250610d8e565b610c7481610d8e565b610cb26040518060400160405280601581526020017f2d2d2d2d2d2d2d2d2d2d2d2d2d2d2d2d2d2d2d2d0a0000000000000000000000815250610d8e565b610cbc3386611936565b610cc68582611954565b610cd060076119c8565b610cf36040518060600160405280602581526020016134dc6025913986336119de565b5050505050565b6000600560008473ffffffffffffffffffffffffffffffffffffffff1673ffffffffffffffffffffffffffffffffffffffff16815260200190815260200160002060008373ffffffffffffffffffffffffffffffffffffffff1673ffffffffffffffffffffffffffffffffffffffff16815260200190815260200160002060009054906101000a900460ff16905092915050565b610e2481604051602401610da291906127fb565b6040516020818303038152906040527f41304fac000000000000000000000000000000000000000000000000000000007bffffffffffffffffffffffffffffffffffffffffffffffffffffffff19166020820180517bffffffffffffffffffffffffffffffffffffffffffffffffffffffff8381831617835250505050611a7d565b50565b60007f01ffc9a7000000000000000000000000000000000000000000000000000000007bffffffffffffffffffffffffffffffffffffffffffffffffffffffff1916827bffffffffffffffffffffffffffffffffffffffffffffffffffffffff1916149050919050565b60008073ffffffffffffffffffffffffffffffffffffffff166002600084815260200190815260200160002060009054906101000a900473ffffffffffffffffffffffffffffffffffffffff1673ffffffffffffffffffffffffffffffffffffffff1614159050919050565b600033905090565b816004600083815260200190815260200160002060006101000a81548173ffffffffffffffffffffffffffffffffffffffff021916908373ffffffffffffffffffffffffffffffffffffffff160217905550808273ffffffffffffffffffffffffffffffffffffffff16610f78836107cb565b73ffffffffffffffffffffffffffffffffffffffff167f8c5be1e5ebec7d5bd14f71427d1e84f3dd0314c0f7b2291e5b200ac8c7c3b92560405160405180910390a45050565b6000610fc982610e91565b611008576040517f08c379a0000000000000000000000000000000000000000000000000000000008152600401610fff906128fb565b60405180910390fd5b6000611013836107cb565b90508073ffffffffffffffffffffffffffffffffffffffff168473ffffffffffffffffffffffffffffffffffffffff16148061108257508373ffffffffffffffffffffffffffffffffffffffff1661106a84610490565b73ffffffffffffffffffffffffffffffffffffffff16145b8061109357506110928185610cfa565b5b91505092915050565b8273ffffffffffffffffffffffffffffffffffffffff166110bc826107cb565b73ffffffffffffffffffffffffffffffffffffffff1614611112576040517f08c379a00000000000000000000000000000000000000000000000000000000081526004016111099061287b565b60405180910390fd5b600073ffffffffffffffffffffffffffffffffffffffff168273ffffffffffffffffffffffffffffffffffffffff161415611182576040517f08c379a0000000000000000000000000000000000000000000000000000000008152600401611179906128bb565b60405180910390fd5b61118d838383611aa6565b611198600082610f05565b6001600360008573ffffffffffffffffffffffffffffffffffffffff1673ffffffffffffffffffffffffffffffffffffffff16815260200190815260200160002060008282546111e89190612c05565b925050819055506001600360008473ffffffffffffffffffffffffffffffffffffffff1673ffffffffffffffffffffffffffffffffffffffff168152602001908152602001600020600082825461123f9190612b24565b92505081905550816002600083815260200190815260200160002060006101000a81548173ffffffffffffffffffffffffffffffffffffffff021916908373ffffffffffffffffffffffffffffffffffffffff160217905550808273ffffffffffffffffffffffffffffffffffffffff168473ffffffffffffffffffffffffffffffffffffffff167fddf252ad1be2c89b69c2b068fc378daa952ba7f163c4a11628f55a4df523b3ef60405160405180910390a46112fe838383611aab565b505050565b6060600082141561134b576040518060400160405280600181526020017f300000000000000000000000000000000000000000000000000000000000000081525090506114ab565b600082905060005b6000821461137d57808061136690612d52565b915050600a826113769190612b7a565b9150611353565b60008167ffffffffffffffff8111156113bf577f4e487b7100000000000000000000000000000000000000000000000000000000600052604160045260246000fd5b6040519080825280601f01601f1916602001820160405280156113f15781602001600182028036833780820191505090505b5090505b600085146114a45760018261140a9190612c05565b9150600a856114199190612d9b565b60306114259190612b24565b60f81b818381518110611461577f4e487b7100000000000000000000000000000000000000000000000000000000600052603260045260246000fd5b60200101907effffffffffffffffffffffffffffffffffffffffffffffffffffffffffffff1916908160001a905350600a8561149d9190612b7a565b94506113f5565b8093505050505b919050565b6000816040516020016114c39190612686565b6040516020818303038152906040528051906020012060001c9050919050565b8173ffffffffffffffffffffffffffffffffffffffff168373ffffffffffffffffffffffffffffffffffffffff161415611552576040517f08c379a0000000000000000000000000000000000000000000000000000000008152600401611549906128db565b60405180910390fd5b80600560008573ffffffffffffffffffffffffffffffffffffffff1673ffffffffffffffffffffffffffffffffffffffff16815260200190815260200160002060008473ffffffffffffffffffffffffffffffffffffffff1673ffffffffffffffffffffffffffffffffffffffff16815260200190815260200160002060006101000a81548160ff0219169083151502179055508173ffffffffffffffffffffffffffffffffffffffff168373ffffffffffffffffffffffffffffffffffffffff167f17307eab39ab6107e8899845ad3d59bd9653f200f220920489ca2b5937696c318360405161164391906127e0565b60405180910390a3505050565b61165b84848461109c565b61166784848484611ab0565b6116a6576040517f08c379a000000000000000000000000000000000000000000000000000000000815260040161169d9061285b565b60405180910390fd5b50505050565b606060405180602001604052806000815250905090565b60606116ce82610e91565b61170d576040517f08c379a0000000000000000000000000000000000000000000000000000000008152600401611704906129fb565b60405180910390fd5b60006117176116ac565b905060008151116117375760405180602001604052806000815250611762565b8061174184611303565b60405160200161175292919061269d565b6040516020818303038152906040525b915050919050565b600081600001549050919050565b606060008251905060008114156117a15760405180602001604052806000815250915050611931565b600060036002836117b29190612b24565b6117bc9190612b7a565b60046117c89190612bab565b905060006020826117d99190612b24565b67ffffffffffffffff811115611818577f4e487b7100000000000000000000000000000000000000000000000000000000600052604160045260246000fd5b6040519080825280601f01601f19166020018201604052801561184a5781602001600182028036833780820191505090505b5090506000604051806060016040528060408152602001613501604091399050600181016020830160005b868110156118ee5760038101905062ffffff818a015116603f8160121c168401518060081b905060ff603f83600c1c1686015116810190508060081b905060ff603f8360061c1686015116810190508060081b905060ff603f831686015116810190508060e01b90508084526004840193505050611875565b506003860660018114611908576002811461191857611923565b613d3d60f01b6002830352611923565b603d60f81b60018303525b508484525050819450505050505b919050565b611950828260405180602001604052806000815250611c47565b5050565b61195d82610e91565b61199c576040517f08c379a00000000000000000000000000000000000000000000000000000000081526004016119939061297b565b60405180910390fd5b806006600084815260200190815260200160002090805190602001906119c3929190611e9f565b505050565b6001816000016000828254019250508190555050565b611a788383836040516024016119f69392919061281d565b6040516020818303038152906040527fe3849f79000000000000000000000000000000000000000000000000000000007bffffffffffffffffffffffffffffffffffffffffffffffffffffffff19166020820180517bffffffffffffffffffffffffffffffffffffffffffffffffffffffff8381831617835250505050611a7d565b505050565b60008151905060006a636f6e736f6c652e6c6f679050602083016000808483855afa5050505050565b505050565b505050565b6000611ad18473ffffffffffffffffffffffffffffffffffffffff16611ca2565b15611c3a578373ffffffffffffffffffffffffffffffffffffffff1663150b7a02611afa610efd565b8786866040518563ffffffff1660e01b8152600401611b1c9493929190612794565b602060405180830381600087803b158015611b3657600080fd5b505af1925050508015611b6757506040513d601f19601f82011682018060405250810190611b6491906121e3565b60015b611bea573d8060008114611b97576040519150601f19603f3d011682016040523d82523d6000602084013e611b9c565b606091505b50600081511415611be2576040517f08c379a0000000000000000000000000000000000000000000000000000000008152600401611bd99061285b565b60405180910390fd5b805181602001fd5b63150b7a0260e01b7bffffffffffffffffffffffffffffffffffffffffffffffffffffffff1916817bffffffffffffffffffffffffffffffffffffffffffffffffffffffff191614915050611c3f565b600190505b949350505050565b611c518383611cc5565b611c5e6000848484611ab0565b611c9d576040517f08c379a0000000000000000000000000000000000000000000000000000000008152600401611c949061285b565b60405180910390fd5b505050565b6000808273ffffffffffffffffffffffffffffffffffffffff163b119050919050565b600073ffffffffffffffffffffffffffffffffffffffff168273ffffffffffffffffffffffffffffffffffffffff161415611d35576040517f08c379a0000000000000000000000000000000000000000000000000000000008152600401611d2c9061299b565b60405180910390fd5b611d3e81610e91565b15611d7e576040517f08c379a0000000000000000000000000000000000000000000000000000000008152600401611d759061289b565b60405180910390fd5b611d8a60008383611aa6565b6001600360008473ffffffffffffffffffffffffffffffffffffffff1673ffffffffffffffffffffffffffffffffffffffff1681526020019081526020016000206000828254611dda9190612b24565b92505081905550816002600083815260200190815260200160002060006101000a81548173ffffffffffffffffffffffffffffffffffffffff021916908373ffffffffffffffffffffffffffffffffffffffff160217905550808273ffffffffffffffffffffffffffffffffffffffff16600073ffffffffffffffffffffffffffffffffffffffff167fddf252ad1be2c89b69c2b068fc378daa952ba7f163c4a11628f55a4df523b3ef60405160405180910390a4611e9b60008383611aab565b5050565b828054611eab90612cef565b90600052602060002090601f016020900481019282611ecd5760008555611f14565b82601f10611ee657805160ff1916838001178555611f14565b82800160010185558215611f14579182015b82811115611f13578251825591602001919060010190611ef8565b5b509050611f219190611f25565b5090565b5b80821115611f3e576000816000905550600101611f26565b5090565b6000611f55611f5084612a9b565b612a76565b905082815260208101848484011115611f6d57600080fd5b611f78848285612cad565b509392505050565b600081359050611f8f8161347f565b92915050565b600081359050611fa481613496565b92915050565b600081359050611fb9816134ad565b92915050565b600081519050611fce816134ad565b92915050565b600082601f830112611fe557600080fd5b8135611ff5848260208601611f42565b91505092915050565b60008135905061200d816134c4565b92915050565b60006020828403121561202557600080fd5b600061203384828501611f80565b91505092915050565b6000806040838503121561204f57600080fd5b600061205d85828601611f80565b925050602061206e85828601611f80565b9150509250929050565b60008060006060848603121561208d57600080fd5b600061209b86828701611f80565b93505060206120ac86828701611f80565b92505060406120bd86828701611ffe565b9150509250925092565b600080600080608085870312156120dd57600080fd5b60006120eb87828801611f80565b94505060206120fc87828801611f80565b935050604061210d87828801611ffe565b925050606085013567ffffffffffffffff81111561212a57600080fd5b61213687828801611fd4565b91505092959194509250565b6000806040838503121561215557600080fd5b600061216385828601611f80565b925050602061217485828601611f95565b9150509250929050565b6000806040838503121561219157600080fd5b600061219f85828601611f80565b92505060206121b085828601611ffe565b9150509250929050565b6000602082840312156121cc57600080fd5b60006121da84828501611faa565b91505092915050565b6000602082840312156121f557600080fd5b600061220384828501611fbf565b91505092915050565b60006020828403121561221e57600080fd5b600061222c84828501611ffe565b91505092915050565b61223e81612c39565b82525050565b61224d81612c4b565b82525050565b600061225e82612ae1565b6122688185612af7565b9350612278818560208601612cbc565b61228181612e88565b840191505092915050565b600061229782612aec565b6122a18185612b08565b93506122b1818560208601612cbc565b6122ba81612e88565b840191505092915050565b60006122d082612aec565b6122da8185612b19565b93506122ea818560208601612cbc565b80840191505092915050565b6000815461230381612cef565b61230d8186612b19565b9450600182166000811461232857600181146123395761236c565b60ff1983168652818601935061236c565b61234285612acc565b60005b8381101561236457815481890152600182019150602081019050612345565b838801955050505b50505092915050565b6000612382603283612b08565b915061238d82612e99565b604082019050919050565b60006123a5602583612b08565b91506123b082612ee8565b604082019050919050565b60006123c8601c83612b08565b91506123d382612f37565b602082019050919050565b60006123eb602483612b08565b91506123f682612f60565b604082019050919050565b600061240e601983612b08565b915061241982612faf565b602082019050919050565b6000612431600b83612b19565b915061243c82612fd8565b600b82019050919050565b6000612454602c83612b08565b915061245f82613001565b604082019050919050565b6000612477600d83612b19565b915061248282613050565b600d82019050919050565b600061249a603883612b08565b91506124a582613079565b604082019050919050565b60006124bd602a83612b08565b91506124c8826130c8565b604082019050919050565b60006124e0602983612b08565b91506124eb82613117565b604082019050919050565b6000612503602e83612b08565b915061250e82613166565b604082019050919050565b6000612526600283612b19565b9150612531826131b5565b600282019050919050565b6000612549602083612b08565b9150612554826131de565b602082019050919050565b600061256c603183612b08565b915061257782613207565b604082019050919050565b600061258f602c83612b08565b915061259a82613256565b604082019050919050565b60006125b2607083612b19565b91506125bd826132a5565b607082019050919050565b60006125d5602f83612b08565b91506125e082613340565b604082019050919050565b60006125f8600a83612b19565b91506126038261338f565b600a82019050919050565b600061261b602183612b08565b9150612626826133b8565b604082019050919050565b600061263e601d83612b19565b915061264982613407565b601d82019050919050565b6000612661603183612b08565b915061266c82613430565b604082019050919050565b61268081612ca3565b82525050565b600061269282846122c5565b915081905092915050565b60006126a982856122c5565b91506126b582846122c5565b91508190509392505050565b60006126cd82856122f6565b91506126d982846122c5565b91506126e48261246a565b91508190509392505050565b60006126fb82612424565b915061270782846122c5565b915081905092915050565b600061271d826125eb565b915061272982856122c5565b9150612734826125a5565b915061274082846122c5565b915061274b82612519565b91508190509392505050565b600061276282612631565b915061276e82846122c5565b915081905092915050565b600060208201905061278e6000830184612235565b92915050565b60006080820190506127a96000830187612235565b6127b66020830186612235565b6127c36040830185612677565b81810360608301526127d58184612253565b905095945050505050565b60006020820190506127f56000830184612244565b92915050565b60006020820190508181036000830152612815818461228c565b905092915050565b60006060820190508181036000830152612837818661228c565b90506128466020830185612677565b6128536040830184612235565b949350505050565b6000602082019050818103600083015261287481612375565b9050919050565b6000602082019050818103600083015261289481612398565b9050919050565b600060208201905081810360008301526128b4816123bb565b9050919050565b600060208201905081810360008301526128d4816123de565b9050919050565b600060208201905081810360008301526128f481612401565b9050919050565b6000602082019050818103600083015261291481612447565b9050919050565b600060208201905081810360008301526129348161248d565b9050919050565b60006020820190508181036000830152612954816124b0565b9050919050565b60006020820190508181036000830152612974816124d3565b9050919050565b60006020820190508181036000830152612994816124f6565b9050919050565b600060208201905081810360008301526129b48161253c565b9050919050565b600060208201905081810360008301526129d48161255f565b9050919050565b600060208201905081810360008301526129f481612582565b9050919050565b60006020820190508181036000830152612a14816125c8565b9050919050565b60006020820190508181036000830152612a348161260e565b9050919050565b60006020820190508181036000830152612a5481612654565b9050919050565b6000602082019050612a706000830184612677565b92915050565b6000612a80612a91565b9050612a8c8282612d21565b919050565b6000604051905090565b600067ffffffffffffffff821115612ab657612ab5612e59565b5b612abf82612e88565b9050602081019050919050565b60008190508160005260206000209050919050565b600081519050919050565b600081519050919050565b600082825260208201905092915050565b600082825260208201905092915050565b600081905092915050565b6000612b2f82612ca3565b9150612b3a83612ca3565b9250827fffffffffffffffffffffffffffffffffffffffffffffffffffffffffffffffff03821115612b6f57612b6e612dcc565b5b828201905092915050565b6000612b8582612ca3565b9150612b9083612ca3565b925082612ba057612b9f612dfb565b5b828204905092915050565b6000612bb682612ca3565b9150612bc183612ca3565b9250817fffffffffffffffffffffffffffffffffffffffffffffffffffffffffffffffff0483118215151615612bfa57612bf9612dcc565b5b828202905092915050565b6000612c1082612ca3565b9150612c1b83612ca3565b925082821015612c2e57612c2d612dcc565b5b828203905092915050565b6000612c4482612c83565b9050919050565b60008115159050919050565b60007fffffffff0000000000000000000000000000000000000000000000000000000082169050919050565b600073ffffffffffffffffffffffffffffffffffffffff82169050919050565b6000819050919050565b82818337600083830152505050565b60005b83811015612cda578082015181840152602081019050612cbf565b83811115612ce9576000848401525b50505050565b60006002820490506001821680612d0757607f821691505b60208210811415612d1b57612d1a612e2a565b5b50919050565b612d2a82612e88565b810181811067ffffffffffffffff82111715612d4957612d48612e59565b5b80604052505050565b6000612d5d82612ca3565b91507fffffffffffffffffffffffffffffffffffffffffffffffffffffffffffffffff821415612d9057612d8f612dcc565b5b600182019050919050565b6000612da682612ca3565b9150612db183612ca3565b925082612dc157612dc0612dfb565b5b828206905092915050565b7f4e487b7100000000000000000000000000000000000000000000000000000000600052601160045260246000fd5b7f4e487b7100000000000000000000000000000000000000000000000000000000600052601260045260246000fd5b7f4e487b7100000000000000000000000000000000000000000000000000000000600052602260045260246000fd5b7f4e487b7100000000000000000000000000000000000000000000000000000000600052604160045260246000fd5b6000601f19601f8301169050919050565b7f4552433732313a207472616e7366657220746f206e6f6e20455243373231526560008201527f63656976657220696d706c656d656e7465720000000000000000000000000000602082015250565b7f4552433732313a207472616e736665722066726f6d20696e636f72726563742060008201527f6f776e6572000000000000000000000000000000000000000000000000000000602082015250565b7f4552433732313a20746f6b656e20616c7265616479206d696e74656400000000600082015250565b7f4552433732313a207472616e7366657220746f20746865207a65726f2061646460008201527f7265737300000000000000000000000000000000000000000000000000000000602082015250565b7f4552433732313a20617070726f766520746f2063616c6c657200000000000000600082015250565b7f4c4f52454d5f495053554d000000000000000000000000000000000000000000600082015250565b7f4552433732313a206f70657261746f7220717565727920666f72206e6f6e657860008201527f697374656e7420746f6b656e0000000000000000000000000000000000000000602082015250565b7f3c2f746578743e3c2f7376673e00000000000000000000000000000000000000600082015250565b7f4552433732313a20617070726f76652063616c6c6572206973206e6f74206f7760008201527f6e6572206e6f7220617070726f76656420666f7220616c6c0000000000000000602082015250565b7f4552433732313a2062616c616e636520717565727920666f7220746865207a6560008201527f726f206164647265737300000000000000000000000000000000000000000000602082015250565b7f4552433732313a206f776e657220717565727920666f72206e6f6e657869737460008201527f656e7420746f6b656e0000000000000000000000000000000000000000000000602082015250565b7f45524337323155524953746f726167653a2055524920736574206f66206e6f6e60008201527f6578697374656e7420746f6b656e000000000000000000000000000000000000602082015250565b7f227d000000000000000000000000000000000000000000000000000000000000600082015250565b7f4552433732313a206d696e7420746f20746865207a65726f2061646472657373600082015250565b7f45524337323155524953746f726167653a2055524920717565727920666f722060008201527f6e6f6e6578697374656e7420746f6b656e000000000000000000000000000000602082015250565b7f4552433732313a20617070726f76656420717565727920666f72206e6f6e657860008201527f697374656e7420746f6b656e0000000000000000000000000000000000000000602082015250565b7f222c20226465736372697074696f6e223a202242656175746966756c20636f6c60008201527f6c656374696f6e206f6620776f72647320636f6d696e672066726f6d204c6f7260208201527f656d20497073756d2e222c2022696d616765223a2022646174613a696d61676560408201527f2f7376672b786d6c3b6261736536342c00000000000000000000000000000000606082015250565b7f4552433732314d657461646174613a2055524920717565727920666f72206e6f60008201527f6e6578697374656e7420746f6b656e0000000000000000000000000000000000602082015250565b7f7b226e616d65223a202200000000000000000000000000000000000000000000600082015250565b7f4552433732313a20617070726f76616c20746f2063757272656e74206f776e6560008201527f7200000000000000000000000000000000000000000000000000000000000000602082015250565b7f646174613a6170706c69636174696f6e2f6a736f6e3b6261736536342c000000600082015250565b7f4552433732313a207472616e736665722063616c6c6572206973206e6f74206f60008201527f776e6572206e6f7220617070726f766564000000000000000000000000000000602082015250565b61348881612c39565b811461349357600080fd5b50565b61349f81612c4b565b81146134aa57600080fd5b50565b6134b681612c57565b81146134c157600080fd5b50565b6134cd81612ca3565b81146134d857600080fd5b5056fe416e204e465420772f20494420257320686173206265656e206d696e74656420746f2025734142434445464748494a4b4c4d4e4f505152535455565758595a6162636465666768696a6b6c6d6e6f707172737475767778797a303132333435363738392b2fa26469706673582212207b5905ba5885a6ce7079cbcb0c3d1bc4d85504625e8da133275d3c032f15e8ed64736f6c634300080100333c73766720786d6c6e733d27687474703a2f2f7777772e77332e6f72672f323030302f73766727207072657365727665417370656374526174696f3d27784d696e594d696e206d656574272076696577426f783d273020302033353020333530273e3c7374796c653e2e62617365207b2066696c6c3a2077686974653b20666f6e742d66616d696c793a2073657269663b20666f6e742d73697a653a20323470783b207d3c2f7374796c653e3c726563742077696474683d273130302527206865696768743d2731303025272066696c6c3d27626c61636b27202f3e3c7465787420783d273530252720793d273530252720636c6173733d27626173652720646f6d696e616e742d626173656c696e653d276d6964646c652720746578742d616e63686f723d276d6964646c65273e",
  "linkReferences": {},
  "deployedLinkReferences": {}
}