{
  "_format": "hh-sol-artifact-1",
  "contractName": "MyEpicNFT",
  "sourceName": "contracts/MyEpicNFT.sol",
  "abi": [
    {
      "inputs": [],
      "stateMutability": "nonpayable",
      "type": "constructor"
    },
    {
      "anonymous": false,
      "inputs": [
        {
          "indexed": true,
          "internalType": "address",
          "name": "owner",
          "type": "address"
        },
        {
          "indexed": true,
          "internalType": "address",
          "name": "approved",
          "type": "address"
        },
        {
          "indexed": true,
          "internalType": "uint256",
          "name": "tokenId",
          "type": "uint256"
        }
      ],
      "name": "Approval",
      "type": "event"
    },
    {
      "anonymous": false,
      "inputs": [
        {
          "indexed": true,
          "internalType": "address",
          "name": "owner",
          "type": "address"
        },
        {
          "indexed": true,
          "internalType": "address",
          "name": "operator",
          "type": "address"
        },
        {
          "indexed": false,
          "internalType": "bool",
          "name": "approved",
          "type": "bool"
        }
      ],
      "name": "ApprovalForAll",
      "type": "event"
    },
    {
      "anonymous": false,
      "inputs": [
        {
          "indexed": false,
          "internalType": "address",
          "name": "sender",
          "type": "address"
        },
        {
          "indexed": false,
          "internalType": "uint256",
          "name": "tokenId",
          "type": "uint256"
        }
      ],
      "name": "NewEpicNFTMinted",
      "type": "event"
    },
    {
      "anonymous": false,
      "inputs": [
        {
          "indexed": true,
          "internalType": "address",
          "name": "from",
          "type": "address"
        },
        {
          "indexed": true,
          "internalType": "address",
          "name": "to",
          "type": "address"
        },
        {
          "indexed": true,
          "internalType": "uint256",
          "name": "tokenId",
          "type": "uint256"
        }
      ],
      "name": "Transfer",
      "type": "event"
    },
    {
      "inputs": [
        {
          "internalType": "address",
          "name": "to",
          "type": "address"
        },
        {
          "internalType": "uint256",
          "name": "tokenId",
          "type": "uint256"
        }
      ],
      "name": "approve",
      "outputs": [],
      "stateMutability": "nonpayable",
      "type": "function"
    },
    {
      "inputs": [
        {
          "internalType": "address",
          "name": "owner",
          "type": "address"
        }
      ],
      "name": "balanceOf",
      "outputs": [
        {
          "internalType": "uint256",
          "name": "",
          "type": "uint256"
        }
      ],
      "stateMutability": "view",
      "type": "function"
    },
    {
      "inputs": [
        {
          "internalType": "uint256",
          "name": "tokenId",
          "type": "uint256"
        }
      ],
      "name": "getApproved",
      "outputs": [
        {
          "internalType": "address",
          "name": "",
          "type": "address"
        }
      ],
      "stateMutability": "view",
      "type": "function"
    },
    {
      "inputs": [
        {
          "internalType": "address",
          "name": "owner",
          "type": "address"
        },
        {
          "internalType": "address",
          "name": "operator",
          "type": "address"
        }
      ],
      "name": "isApprovedForAll",
      "outputs": [
        {
          "internalType": "bool",
          "name": "",
          "type": "bool"
        }
      ],
      "stateMutability": "view",
      "type": "function"
    },
    {
      "inputs": [],
      "name": "makeAnEpicNFT",
      "outputs": [],
      "stateMutability": "nonpayable",
      "type": "function"
    },
    {
      "inputs": [],
      "name": "name",
      "outputs": [
        {
          "internalType": "string",
          "name": "",
          "type": "string"
        }
      ],
      "stateMutability": "view",
      "type": "function"
    },
    {
      "inputs": [
        {
          "internalType": "uint256",
          "name": "tokenId",
          "type": "uint256"
        }
      ],
      "name": "ownerOf",
      "outputs": [
        {
          "internalType": "address",
          "name": "",
          "type": "address"
        }
      ],
      "stateMutability": "view",
      "type": "function"
    },
    {
      "inputs": [
        {
          "internalType": "uint256",
          "name": "tokenId",
          "type": "uint256"
        }
      ],
      "name": "pickRandomWord",
      "outputs": [
        {
          "internalType": "string",
          "name": "",
          "type": "string"
        }
      ],
      "stateMutability": "view",
      "type": "function"
    },
    {
      "inputs": [
        {
          "internalType": "address",
          "name": "from",
          "type": "address"
        },
        {
          "internalType": "address",
          "name": "to",
          "type": "address"
        },
        {
          "internalType": "uint256",
          "name": "tokenId",
          "type": "uint256"
        }
      ],
      "name": "safeTransferFrom",
      "outputs": [],
      "stateMutability": "nonpayable",
      "type": "function"
    },
    {
      "inputs": [
        {
          "internalType": "address",
          "name": "from",
          "type": "address"
        },
        {
          "internalType": "address",
          "name": "to",
          "type": "address"
        },
        {
          "internalType": "uint256",
          "name": "tokenId",
          "type": "uint256"
        },
        {
          "internalType": "bytes",
          "name": "_data",
          "type": "bytes"
        }
      ],
      "name": "safeTransferFrom",
      "outputs": [],
      "stateMutability": "nonpayable",
      "type": "function"
    },
    {
      "inputs": [
        {
          "internalType": "address",
          "name": "operator",
          "type": "address"
        },
        {
          "internalType": "bool",
          "name": "approved",
          "type": "bool"
        }
      ],
      "name": "setApprovalForAll",
      "outputs": [],
      "stateMutability": "nonpayable",
      "type": "function"
    },
    {
      "inputs": [
        {
          "internalType": "bytes4",
          "name": "interfaceId",
          "type": "bytes4"
        }
      ],
      "name": "supportsInterface",
      "outputs": [
        {
          "internalType": "bool",
          "name": "",
          "type": "bool"
        }
      ],
      "stateMutability": "view",
      "type": "function"
    },
    {
      "inputs": [],
      "name": "symbol",
      "outputs": [
        {
          "internalType": "string",
          "name": "",
          "type": "string"
        }
      ],
      "stateMutability": "view",
      "type": "function"
    },
    {
      "inputs": [
        {
          "internalType": "uint256",
          "name": "tokenId",
          "type": "uint256"
        }
      ],
      "name": "tokenURI",
      "outputs": [
        {
          "internalType": "string",
          "name": "",
          "type": "string"
        }
      ],
      "stateMutability": "view",
      "type": "function"
    },
    {
      "inputs": [
        {
          "internalType": "address",
          "name": "from",
          "type": "address"
        },
        {
          "internalType": "address",
          "name": "to",
          "type": "address"
        },
        {
          "internalType": "uint256",
          "name": "tokenId",
          "type": "uint256"
        }
      ],
      "name": "transferFrom",
      "outputs": [],
      "stateMutability": "nonpayable",
      "type": "function"
    }
  ],
  "bytecode": "0x608060405260405180610160016040528061012f815260200162003d7f61012f91396008908051906020019062000038929190620004e5565b506040518061018001604052806040518060400160405280600581526020017f4c6f72656d00000000000000000000000000000000000000000000000000000081525081526020016040518060400160405280600581526020017f697073756d00000000000000000000000000000000000000000000000000000081525081526020016040518060400160405280600581526020017f646f6c6f7200000000000000000000000000000000000000000000000000000081525081526020016040518060400160405280600381526020017f736974000000000000000000000000000000000000000000000000000000000081525081526020016040518060400160405280600481526020017f616d65740000000000000000000000000000000000000000000000000000000081525081526020016040518060400160405280600b81526020017f636f6e736563746574757200000000000000000000000000000000000000000081525081526020016040518060400160405280600a81526020017f61646970697363696e670000000000000000000000000000000000000000000081525081526020016040518060400160405280600581526020017f656c69742e00000000000000000000000000000000000000000000000000000081525081526020016040518060400160405280600a81526020017f566573746962756c756d0000000000000000000000000000000000000000000081525081526020016040518060400160405280600681526020017f766172697573000000000000000000000000000000000000000000000000000081525081526020016040518060400160405280600981526020017f6665726d656e74756d000000000000000000000000000000000000000000000081525081526020016040518060400160405280600381526020017f6c656f0000000000000000000000000000000000000000000000000000000000815250815250600990600c6200031992919062000576565b503480156200032757600080fd5b506040518060400160405280600d81526020017f4c6f72656d497073756d4e4654000000000000000000000000000000000000008152506040518060400160405280600581526020017f4c4f52454d0000000000000000000000000000000000000000000000000000008152508160009080519060200190620003ac929190620004e5565b508060019080519060200190620003c5929190620004e5565b505050620004136040518060400160405280601981526020017f4c6f72656d20697073756d204e465420636f6e74726163742e000000000000008152506200041960201b62000dc71760201c565b62000797565b620004b981604051602401620004309190620006ab565b6040516020818303038152906040527f41304fac000000000000000000000000000000000000000000000000000000007bffffffffffffffffffffffffffffffffffffffffffffffffffffffff19166020820180517bffffffffffffffffffffffffffffffffffffffffffffffffffffffff8381831617835250505050620004bc60201b60201c565b50565b60008151905060006a636f6e736f6c652e6c6f679050602083016000808483855afa5050505050565b828054620004f39062000721565b90600052602060002090601f01602090048101928262000517576000855562000563565b82601f106200053257805160ff191683800117855562000563565b8280016001018555821562000563579182015b828111156200056257825182559160200191906001019062000545565b5b509050620005729190620005dd565b5090565b828054828255906000526020600020908101928215620005ca579160200282015b82811115620005c9578251829080519060200190620005b8929190620004e5565b509160200191906001019062000597565b5b509050620005d99190620005fc565b5090565b5b80821115620005f8576000816000905550600101620005de565b5090565b5b8082111562000620576000818162000616919062000624565b50600101620005fd565b5090565b508054620006329062000721565b6000825580601f1062000646575062000667565b601f016020900490600052602060002090810190620006669190620005dd565b5b50565b60006200067782620006cf565b620006838185620006da565b935062000695818560208601620006eb565b620006a08162000786565b840191505092915050565b60006020820190508181036000830152620006c781846200066a565b905092915050565b600081519050919050565b600082825260208201905092915050565b60005b838110156200070b578082015181840152602081019050620006ee565b838111156200071b576000848401525b50505050565b600060028204905060018216806200073a57607f821691505b6020821081141562000751576200075062000757565b5b50919050565b7f4e487b7100000000000000000000000000000000000000000000000000000000600052602260045260246000fd5b6000601f19601f8301169050919050565b6135d880620007a76000396000f3fe608060405234801561001057600080fd5b50600436106100f55760003560e01c80636352211e11610097578063b88d4fde11610066578063b88d4fde14610296578063c87b56dd146102b2578063de9d132f146102e2578063e985e9c5146102ec576100f5565b80636352211e146101fc57806370a082311461022c57806395d89b411461025c578063a22cb4651461027a576100f5565b8063095ea7b3116100d3578063095ea7b31461017857806323b872dd146101945780633e1831dd146101b057806342842e0e146101e0576100f5565b806301ffc9a7146100fa57806306fdde031461012a578063081812fc14610148575b600080fd5b610114600480360381019061010f91906121f3565b61031c565b6040516101219190612842565b60405180910390f35b6101326103fe565b60405161013f919061285d565b60405180910390f35b610162600480360381019061015d9190612245565b610490565b60405161016f91906127b2565b60405180910390f35b610192600480360381019061018d91906121b7565b610515565b005b6101ae60048036038101906101a991906120b1565b61062d565b005b6101ca60048036038101906101c59190612245565b61068d565b6040516101d7919061285d565b60405180910390f35b6101fa60048036038101906101f591906120b1565b6107ab565b005b61021660048036038101906102119190612245565b6107cb565b60405161022391906127b2565b60405180910390f35b6102466004803603810190610241919061204c565b61087d565b6040516102539190612abd565b60405180910390f35b610264610935565b604051610271919061285d565b60405180910390f35b610294600480360381019061028f919061217b565b6109c7565b005b6102b060048036038101906102ab9190612100565b6109dd565b005b6102cc60048036038101906102c79190612245565b610a3f565b6040516102d9919061285d565b60405180910390f35b6102ea610b91565b005b61030660048036038101906103019190612075565b610d33565b6040516103139190612842565b60405180910390f35b60007f80ac58cd000000000000000000000000000000000000000000000000000000007bffffffffffffffffffffffffffffffffffffffffffffffffffffffff1916827bffffffffffffffffffffffffffffffffffffffffffffffffffffffff191614806103e757507f5b5e139f000000000000000000000000000000000000000000000000000000007bffffffffffffffffffffffffffffffffffffffffffffffffffffffff1916827bffffffffffffffffffffffffffffffffffffffffffffffffffffffff1916145b806103f757506103f682610e60565b5b9050919050565b60606000805461040d90612d51565b80601f016020809104026020016040519081016040528092919081815260200182805461043990612d51565b80156104865780601f1061045b57610100808354040283529160200191610486565b820191906000526020600020905b81548152906001019060200180831161046957829003601f168201915b5050505050905090565b600061049b82610eca565b6104da576040517f08c379a00000000000000000000000000000000000000000000000000000000081526004016104d190612a3d565b60405180910390fd5b6004600083815260200190815260200160002060009054906101000a900473ffffffffffffffffffffffffffffffffffffffff169050919050565b6000610520826107cb565b90508073ffffffffffffffffffffffffffffffffffffffff168373ffffffffffffffffffffffffffffffffffffffff161415610591576040517f08c379a000000000000000000000000000000000000000000000000000000000815260040161058890612a7d565b60405180910390fd5b8073ffffffffffffffffffffffffffffffffffffffff166105b0610f36565b73ffffffffffffffffffffffffffffffffffffffff1614806105df57506105de816105d9610f36565b610d33565b5b61061e576040517f08c379a00000000000000000000000000000000000000000000000000000000081526004016106159061297d565b60405180910390fd5b6106288383610f3e565b505050565b61063e610638610f36565b82610ff7565b61067d576040517f08c379a000000000000000000000000000000000000000000000000000000000815260040161067490612a9d565b60405180910390fd5b6106888383836110d5565b505050565b606060006106c161069d8461133c565b6040516020016106ad9190612729565b6040516020818303038152906040526114e9565b9050600980549050816106d49190612dfd565b905060098181548110610710577f4e487b7100000000000000000000000000000000000000000000000000000000600052603260045260246000fd5b90600052602060002001805461072590612d51565b80601f016020809104026020016040519081016040528092919081815260200182805461075190612d51565b801561079e5780601f106107735761010080835404028352916020019161079e565b820191906000526020600020905b81548152906001019060200180831161078157829003601f168201915b5050505050915050919050565b6107c6838383604051806020016040528060008152506109dd565b505050565b6000806002600084815260200190815260200160002060009054906101000a900473ffffffffffffffffffffffffffffffffffffffff169050600073ffffffffffffffffffffffffffffffffffffffff168173ffffffffffffffffffffffffffffffffffffffff161415610874576040517f08c379a000000000000000000000000000000000000000000000000000000000815260040161086b906129bd565b60405180910390fd5b80915050919050565b60008073ffffffffffffffffffffffffffffffffffffffff168273ffffffffffffffffffffffffffffffffffffffff1614156108ee576040517f08c379a00000000000000000000000000000000000000000000000000000000081526004016108e59061299d565b60405180910390fd5b600360008373ffffffffffffffffffffffffffffffffffffffff1673ffffffffffffffffffffffffffffffffffffffff168152602001908152602001600020549050919050565b60606001805461094490612d51565b80601f016020809104026020016040519081016040528092919081815260200182805461097090612d51565b80156109bd5780601f10610992576101008083540402835291602001916109bd565b820191906000526020600020905b8154815290600101906020018083116109a057829003601f168201915b5050505050905090565b6109d96109d2610f36565b838361151c565b5050565b6109ee6109e8610f36565b83610ff7565b610a2d576040517f08c379a0000000000000000000000000000000000000000000000000000000008152600401610a2490612a9d565b60405180910390fd5b610a3984848484611689565b50505050565b6060610a4a82610eca565b610a89576040517f08c379a0000000000000000000000000000000000000000000000000000000008152600401610a8090612a1d565b60405180910390fd5b6000600660008481526020019081526020016000208054610aa990612d51565b80601f0160208091040260200160405190810160405280929190818152602001828054610ad590612d51565b8015610b225780601f10610af757610100808354040283529160200191610b22565b820191906000526020600020905b815481529060010190602001808311610b0557829003601f168201915b505050505090506000610b336116e5565b9050600081511415610b49578192505050610b8c565b600082511115610b7e578082604051602001610b669291906126d6565b60405160208183030381529060405292505050610b8c565b610b87846116fc565b925050505b919050565b6000610b9d60076117a3565b90506000610baa8261068d565b90506000600882604051602001610bc29291906126fa565b60405160208183030381529060405290506000610c0783610be2846117b1565b604051602001610bf392919061274b565b6040516020818303038152906040526117b1565b9050600081604051602001610c1c9190612790565b6040516020818303038152906040529050610c6b6040518060400160405280601581526020017f0a2d2d2d2d2d2d2d2d2d2d2d2d2d2d2d2d2d2d2d2d0000000000000000000000815250610dc7565b610c7481610dc7565b610cb26040518060400160405280601581526020017f2d2d2d2d2d2d2d2d2d2d2d2d2d2d2d2d2d2d2d2d0a0000000000000000000000815250610dc7565b610cbc338661196f565b610cc6858261198d565b610cd06007611a01565b610cf360405180606001604052806025815260200161353e602591398633611a17565b7febb98688741ffa4c7589bf325de30cf7becb63de567842e1ccdb6cb949fdc82c3386604051610d24929190612819565b60405180910390a15050505050565b6000600560008473ffffffffffffffffffffffffffffffffffffffff1673ffffffffffffffffffffffffffffffffffffffff16815260200190815260200160002060008373ffffffffffffffffffffffffffffffffffffffff1673ffffffffffffffffffffffffffffffffffffffff16815260200190815260200160002060009054906101000a900460ff16905092915050565b610e5d81604051602401610ddb919061285d565b6040516020818303038152906040527f41304fac000000000000000000000000000000000000000000000000000000007bffffffffffffffffffffffffffffffffffffffffffffffffffffffff19166020820180517bffffffffffffffffffffffffffffffffffffffffffffffffffffffff8381831617835250505050611ab6565b50565b60007f01ffc9a7000000000000000000000000000000000000000000000000000000007bffffffffffffffffffffffffffffffffffffffffffffffffffffffff1916827bffffffffffffffffffffffffffffffffffffffffffffffffffffffff1916149050919050565b60008073ffffffffffffffffffffffffffffffffffffffff166002600084815260200190815260200160002060009054906101000a900473ffffffffffffffffffffffffffffffffffffffff1673ffffffffffffffffffffffffffffffffffffffff1614159050919050565b600033905090565b816004600083815260200190815260200160002060006101000a81548173ffffffffffffffffffffffffffffffffffffffff021916908373ffffffffffffffffffffffffffffffffffffffff160217905550808273ffffffffffffffffffffffffffffffffffffffff16610fb1836107cb565b73ffffffffffffffffffffffffffffffffffffffff167f8c5be1e5ebec7d5bd14f71427d1e84f3dd0314c0f7b2291e5b200ac8c7c3b92560405160405180910390a45050565b600061100282610eca565b611041576040517f08c379a00000000000000000000000000000000000000000000000000000000081526004016110389061295d565b60405180910390fd5b600061104c836107cb565b90508073ffffffffffffffffffffffffffffffffffffffff168473ffffffffffffffffffffffffffffffffffffffff1614806110bb57508373ffffffffffffffffffffffffffffffffffffffff166110a384610490565b73ffffffffffffffffffffffffffffffffffffffff16145b806110cc57506110cb8185610d33565b5b91505092915050565b8273ffffffffffffffffffffffffffffffffffffffff166110f5826107cb565b73ffffffffffffffffffffffffffffffffffffffff161461114b576040517f08c379a0000000000000000000000000000000000000000000000000000000008152600401611142906128dd565b60405180910390fd5b600073ffffffffffffffffffffffffffffffffffffffff168273ffffffffffffffffffffffffffffffffffffffff1614156111bb576040517f08c379a00000000000000000000000000000000000000000000000000000000081526004016111b29061291d565b60405180910390fd5b6111c6838383611adf565b6111d1600082610f3e565b6001600360008573ffffffffffffffffffffffffffffffffffffffff1673ffffffffffffffffffffffffffffffffffffffff16815260200190815260200160002060008282546112219190612c67565b925050819055506001600360008473ffffffffffffffffffffffffffffffffffffffff1673ffffffffffffffffffffffffffffffffffffffff16815260200190815260200160002060008282546112789190612b86565b92505081905550816002600083815260200190815260200160002060006101000a81548173ffffffffffffffffffffffffffffffffffffffff021916908373ffffffffffffffffffffffffffffffffffffffff160217905550808273ffffffffffffffffffffffffffffffffffffffff168473ffffffffffffffffffffffffffffffffffffffff167fddf252ad1be2c89b69c2b068fc378daa952ba7f163c4a11628f55a4df523b3ef60405160405180910390a4611337838383611ae4565b505050565b60606000821415611384576040518060400160405280600181526020017f300000000000000000000000000000000000000000000000000000000000000081525090506114e4565b600082905060005b600082146113b657808061139f90612db4565b915050600a826113af9190612bdc565b915061138c565b60008167ffffffffffffffff8111156113f8577f4e487b7100000000000000000000000000000000000000000000000000000000600052604160045260246000fd5b6040519080825280601f01601f19166020018201604052801561142a5781602001600182028036833780820191505090505b5090505b600085146114dd576001826114439190612c67565b9150600a856114529190612dfd565b603061145e9190612b86565b60f81b81838151811061149a577f4e487b7100000000000000000000000000000000000000000000000000000000600052603260045260246000fd5b60200101907effffffffffffffffffffffffffffffffffffffffffffffffffffffffffffff1916908160001a905350600a856114d69190612bdc565b945061142e565b8093505050505b919050565b6000816040516020016114fc91906126bf565b6040516020818303038152906040528051906020012060001c9050919050565b8173ffffffffffffffffffffffffffffffffffffffff168373ffffffffffffffffffffffffffffffffffffffff16141561158b576040517f08c379a00000000000000000000000000000000000000000000000000000000081526004016115829061293d565b60405180910390fd5b80600560008573ffffffffffffffffffffffffffffffffffffffff1673ffffffffffffffffffffffffffffffffffffffff16815260200190815260200160002060008473ffffffffffffffffffffffffffffffffffffffff1673ffffffffffffffffffffffffffffffffffffffff16815260200190815260200160002060006101000a81548160ff0219169083151502179055508173ffffffffffffffffffffffffffffffffffffffff168373ffffffffffffffffffffffffffffffffffffffff167f17307eab39ab6107e8899845ad3d59bd9653f200f220920489ca2b5937696c318360405161167c9190612842565b60405180910390a3505050565b6116948484846110d5565b6116a084848484611ae9565b6116df576040517f08c379a00000000000000000000000000000000000000000000000000000000081526004016116d6906128bd565b60405180910390fd5b50505050565b606060405180602001604052806000815250905090565b606061170782610eca565b611746576040517f08c379a000000000000000000000000000000000000000000000000000000000815260040161173d90612a5d565b60405180910390fd5b60006117506116e5565b90506000815111611770576040518060200160405280600081525061179b565b8061177a8461133c565b60405160200161178b9291906126d6565b6040516020818303038152906040525b915050919050565b600081600001549050919050565b606060008251905060008114156117da576040518060200160405280600081525091505061196a565b600060036002836117eb9190612b86565b6117f59190612bdc565b60046118019190612c0d565b905060006020826118129190612b86565b67ffffffffffffffff811115611851577f4e487b7100000000000000000000000000000000000000000000000000000000600052604160045260246000fd5b6040519080825280601f01601f1916602001820160405280156118835781602001600182028036833780820191505090505b5090506000604051806060016040528060408152602001613563604091399050600181016020830160005b868110156119275760038101905062ffffff818a015116603f8160121c168401518060081b905060ff603f83600c1c1686015116810190508060081b905060ff603f8360061c1686015116810190508060081b905060ff603f831686015116810190508060e01b905080845260048401935050506118ae565b50600386066001811461194157600281146119515761195c565b613d3d60f01b600283035261195c565b603d60f81b60018303525b508484525050819450505050505b919050565b611989828260405180602001604052806000815250611c80565b5050565b61199682610eca565b6119d5576040517f08c379a00000000000000000000000000000000000000000000000000000000081526004016119cc906129dd565b60405180910390fd5b806006600084815260200190815260200160002090805190602001906119fc929190611ed8565b505050565b6001816000016000828254019250508190555050565b611ab1838383604051602401611a2f9392919061287f565b6040516020818303038152906040527fe3849f79000000000000000000000000000000000000000000000000000000007bffffffffffffffffffffffffffffffffffffffffffffffffffffffff19166020820180517bffffffffffffffffffffffffffffffffffffffffffffffffffffffff8381831617835250505050611ab6565b505050565b60008151905060006a636f6e736f6c652e6c6f679050602083016000808483855afa5050505050565b505050565b505050565b6000611b0a8473ffffffffffffffffffffffffffffffffffffffff16611cdb565b15611c73578373ffffffffffffffffffffffffffffffffffffffff1663150b7a02611b33610f36565b8786866040518563ffffffff1660e01b8152600401611b5594939291906127cd565b602060405180830381600087803b158015611b6f57600080fd5b505af1925050508015611ba057506040513d601f19601f82011682018060405250810190611b9d919061221c565b60015b611c23573d8060008114611bd0576040519150601f19603f3d011682016040523d82523d6000602084013e611bd5565b606091505b50600081511415611c1b576040517f08c379a0000000000000000000000000000000000000000000000000000000008152600401611c12906128bd565b60405180910390fd5b805181602001fd5b63150b7a0260e01b7bffffffffffffffffffffffffffffffffffffffffffffffffffffffff1916817bffffffffffffffffffffffffffffffffffffffffffffffffffffffff191614915050611c78565b600190505b949350505050565b611c8a8383611cfe565b611c976000848484611ae9565b611cd6576040517f08c379a0000000000000000000000000000000000000000000000000000000008152600401611ccd906128bd565b60405180910390fd5b505050565b6000808273ffffffffffffffffffffffffffffffffffffffff163b119050919050565b600073ffffffffffffffffffffffffffffffffffffffff168273ffffffffffffffffffffffffffffffffffffffff161415611d6e576040517f08c379a0000000000000000000000000000000000000000000000000000000008152600401611d65906129fd565b60405180910390fd5b611d7781610eca565b15611db7576040517f08c379a0000000000000000000000000000000000000000000000000000000008152600401611dae906128fd565b60405180910390fd5b611dc360008383611adf565b6001600360008473ffffffffffffffffffffffffffffffffffffffff1673ffffffffffffffffffffffffffffffffffffffff1681526020019081526020016000206000828254611e139190612b86565b92505081905550816002600083815260200190815260200160002060006101000a81548173ffffffffffffffffffffffffffffffffffffffff021916908373ffffffffffffffffffffffffffffffffffffffff160217905550808273ffffffffffffffffffffffffffffffffffffffff16600073ffffffffffffffffffffffffffffffffffffffff167fddf252ad1be2c89b69c2b068fc378daa952ba7f163c4a11628f55a4df523b3ef60405160405180910390a4611ed460008383611ae4565b5050565b828054611ee490612d51565b90600052602060002090601f016020900481019282611f065760008555611f4d565b82601f10611f1f57805160ff1916838001178555611f4d565b82800160010185558215611f4d579182015b82811115611f4c578251825591602001919060010190611f31565b5b509050611f5a9190611f5e565b5090565b5b80821115611f77576000816000905550600101611f5f565b5090565b6000611f8e611f8984612afd565b612ad8565b905082815260208101848484011115611fa657600080fd5b611fb1848285612d0f565b509392505050565b600081359050611fc8816134e1565b92915050565b600081359050611fdd816134f8565b92915050565b600081359050611ff28161350f565b92915050565b6000815190506120078161350f565b92915050565b600082601f83011261201e57600080fd5b813561202e848260208601611f7b565b91505092915050565b60008135905061204681613526565b92915050565b60006020828403121561205e57600080fd5b600061206c84828501611fb9565b91505092915050565b6000806040838503121561208857600080fd5b600061209685828601611fb9565b92505060206120a785828601611fb9565b9150509250929050565b6000806000606084860312156120c657600080fd5b60006120d486828701611fb9565b93505060206120e586828701611fb9565b92505060406120f686828701612037565b9150509250925092565b6000806000806080858703121561211657600080fd5b600061212487828801611fb9565b945050602061213587828801611fb9565b935050604061214687828801612037565b925050606085013567ffffffffffffffff81111561216357600080fd5b61216f8782880161200d565b91505092959194509250565b6000806040838503121561218e57600080fd5b600061219c85828601611fb9565b92505060206121ad85828601611fce565b9150509250929050565b600080604083850312156121ca57600080fd5b60006121d885828601611fb9565b92505060206121e985828601612037565b9150509250929050565b60006020828403121561220557600080fd5b600061221384828501611fe3565b91505092915050565b60006020828403121561222e57600080fd5b600061223c84828501611ff8565b91505092915050565b60006020828403121561225757600080fd5b600061226584828501612037565b91505092915050565b61227781612c9b565b82525050565b61228681612cad565b82525050565b600061229782612b43565b6122a18185612b59565b93506122b1818560208601612d1e565b6122ba81612eea565b840191505092915050565b60006122d082612b4e565b6122da8185612b6a565b93506122ea818560208601612d1e565b6122f381612eea565b840191505092915050565b600061230982612b4e565b6123138185612b7b565b9350612323818560208601612d1e565b80840191505092915050565b6000815461233c81612d51565b6123468186612b7b565b945060018216600081146123615760018114612372576123a5565b60ff198316865281860193506123a5565b61237b85612b2e565b60005b8381101561239d5781548189015260018201915060208101905061237e565b838801955050505b50505092915050565b60006123bb603283612b6a565b91506123c682612efb565b604082019050919050565b60006123de602583612b6a565b91506123e982612f4a565b604082019050919050565b6000612401601c83612b6a565b915061240c82612f99565b602082019050919050565b6000612424602483612b6a565b915061242f82612fc2565b604082019050919050565b6000612447601983612b6a565b915061245282613011565b602082019050919050565b600061246a600b83612b7b565b91506124758261303a565b600b82019050919050565b600061248d602c83612b6a565b915061249882613063565b604082019050919050565b60006124b0600d83612b7b565b91506124bb826130b2565b600d82019050919050565b60006124d3603883612b6a565b91506124de826130db565b604082019050919050565b60006124f6602a83612b6a565b91506125018261312a565b604082019050919050565b6000612519602983612b6a565b915061252482613179565b604082019050919050565b600061253c602e83612b6a565b9150612547826131c8565b604082019050919050565b600061255f600283612b7b565b915061256a82613217565b600282019050919050565b6000612582602083612b6a565b915061258d82613240565b602082019050919050565b60006125a5603183612b6a565b91506125b082613269565b604082019050919050565b60006125c8602c83612b6a565b91506125d3826132b8565b604082019050919050565b60006125eb607083612b7b565b91506125f682613307565b607082019050919050565b600061260e602f83612b6a565b9150612619826133a2565b604082019050919050565b6000612631600a83612b7b565b915061263c826133f1565b600a82019050919050565b6000612654602183612b6a565b915061265f8261341a565b604082019050919050565b6000612677601d83612b7b565b915061268282613469565b601d82019050919050565b600061269a603183612b6a565b91506126a582613492565b604082019050919050565b6126b981612d05565b82525050565b60006126cb82846122fe565b915081905092915050565b60006126e282856122fe565b91506126ee82846122fe565b91508190509392505050565b6000612706828561232f565b915061271282846122fe565b915061271d826124a3565b91508190509392505050565b60006127348261245d565b915061274082846122fe565b915081905092915050565b600061275682612624565b915061276282856122fe565b915061276d826125de565b915061277982846122fe565b915061278482612552565b91508190509392505050565b600061279b8261266a565b91506127a782846122fe565b915081905092915050565b60006020820190506127c7600083018461226e565b92915050565b60006080820190506127e2600083018761226e565b6127ef602083018661226e565b6127fc60408301856126b0565b818103606083015261280e818461228c565b905095945050505050565b600060408201905061282e600083018561226e565b61283b60208301846126b0565b9392505050565b6000602082019050612857600083018461227d565b92915050565b6000602082019050818103600083015261287781846122c5565b905092915050565b6000606082019050818103600083015261289981866122c5565b90506128a860208301856126b0565b6128b5604083018461226e565b949350505050565b600060208201905081810360008301526128d6816123ae565b9050919050565b600060208201905081810360008301526128f6816123d1565b9050919050565b60006020820190508181036000830152612916816123f4565b9050919050565b6000602082019050818103600083015261293681612417565b9050919050565b600060208201905081810360008301526129568161243a565b9050919050565b6000602082019050818103600083015261297681612480565b9050919050565b60006020820190508181036000830152612996816124c6565b9050919050565b600060208201905081810360008301526129b6816124e9565b9050919050565b600060208201905081810360008301526129d68161250c565b9050919050565b600060208201905081810360008301526129f68161252f565b9050919050565b60006020820190508181036000830152612a1681612575565b9050919050565b60006020820190508181036000830152612a3681612598565b9050919050565b60006020820190508181036000830152612a56816125bb565b9050919050565b60006020820190508181036000830152612a7681612601565b9050919050565b60006020820190508181036000830152612a9681612647565b9050919050565b60006020820190508181036000830152612ab68161268d565b9050919050565b6000602082019050612ad260008301846126b0565b92915050565b6000612ae2612af3565b9050612aee8282612d83565b919050565b6000604051905090565b600067ffffffffffffffff821115612b1857612b17612ebb565b5b612b2182612eea565b9050602081019050919050565b60008190508160005260206000209050919050565b600081519050919050565b600081519050919050565b600082825260208201905092915050565b600082825260208201905092915050565b600081905092915050565b6000612b9182612d05565b9150612b9c83612d05565b9250827fffffffffffffffffffffffffffffffffffffffffffffffffffffffffffffffff03821115612bd157612bd0612e2e565b5b828201905092915050565b6000612be782612d05565b9150612bf283612d05565b925082612c0257612c01612e5d565b5b828204905092915050565b6000612c1882612d05565b9150612c2383612d05565b9250817fffffffffffffffffffffffffffffffffffffffffffffffffffffffffffffffff0483118215151615612c5c57612c5b612e2e565b5b828202905092915050565b6000612c7282612d05565b9150612c7d83612d05565b925082821015612c9057612c8f612e2e565b5b828203905092915050565b6000612ca682612ce5565b9050919050565b60008115159050919050565b60007fffffffff0000000000000000000000000000000000000000000000000000000082169050919050565b600073ffffffffffffffffffffffffffffffffffffffff82169050919050565b6000819050919050565b82818337600083830152505050565b60005b83811015612d3c578082015181840152602081019050612d21565b83811115612d4b576000848401525b50505050565b60006002820490506001821680612d6957607f821691505b60208210811415612d7d57612d7c612e8c565b5b50919050565b612d8c82612eea565b810181811067ffffffffffffffff82111715612dab57612daa612ebb565b5b80604052505050565b6000612dbf82612d05565b91507fffffffffffffffffffffffffffffffffffffffffffffffffffffffffffffffff821415612df257612df1612e2e565b5b600182019050919050565b6000612e0882612d05565b9150612e1383612d05565b925082612e2357612e22612e5d565b5b828206905092915050565b7f4e487b7100000000000000000000000000000000000000000000000000000000600052601160045260246000fd5b7f4e487b7100000000000000000000000000000000000000000000000000000000600052601260045260246000fd5b7f4e487b7100000000000000000000000000000000000000000000000000000000600052602260045260246000fd5b7f4e487b7100000000000000000000000000000000000000000000000000000000600052604160045260246000fd5b6000601f19601f8301169050919050565b7f4552433732313a207472616e7366657220746f206e6f6e20455243373231526560008201527f63656976657220696d706c656d656e7465720000000000000000000000000000602082015250565b7f4552433732313a207472616e736665722066726f6d20696e636f72726563742060008201527f6f776e6572000000000000000000000000000000000000000000000000000000602082015250565b7f4552433732313a20746f6b656e20616c7265616479206d696e74656400000000600082015250565b7f4552433732313a207472616e7366657220746f20746865207a65726f2061646460008201527f7265737300000000000000000000000000000000000000000000000000000000602082015250565b7f4552433732313a20617070726f766520746f2063616c6c657200000000000000600082015250565b7f4c4f52454d5f495053554d000000000000000000000000000000000000000000600082015250565b7f4552433732313a206f70657261746f7220717565727920666f72206e6f6e657860008201527f697374656e7420746f6b656e0000000000000000000000000000000000000000602082015250565b7f3c2f746578743e3c2f7376673e00000000000000000000000000000000000000600082015250565b7f4552433732313a20617070726f76652063616c6c6572206973206e6f74206f7760008201527f6e6572206e6f7220617070726f76656420666f7220616c6c0000000000000000602082015250565b7f4552433732313a2062616c616e636520717565727920666f7220746865207a6560008201527f726f206164647265737300000000000000000000000000000000000000000000602082015250565b7f4552433732313a206f776e657220717565727920666f72206e6f6e657869737460008201527f656e7420746f6b656e0000000000000000000000000000000000000000000000602082015250565b7f45524337323155524953746f726167653a2055524920736574206f66206e6f6e60008201527f6578697374656e7420746f6b656e000000000000000000000000000000000000602082015250565b7f227d000000000000000000000000000000000000000000000000000000000000600082015250565b7f4552433732313a206d696e7420746f20746865207a65726f2061646472657373600082015250565b7f45524337323155524953746f726167653a2055524920717565727920666f722060008201527f6e6f6e6578697374656e7420746f6b656e000000000000000000000000000000602082015250565b7f4552433732313a20617070726f76656420717565727920666f72206e6f6e657860008201527f697374656e7420746f6b656e0000000000000000000000000000000000000000602082015250565b7f222c20226465736372697074696f6e223a202242656175746966756c20636f6c60008201527f6c656374696f6e206f6620776f72647320636f6d696e672066726f6d204c6f7260208201527f656d20497073756d2e222c2022696d616765223a2022646174613a696d61676560408201527f2f7376672b786d6c3b6261736536342c00000000000000000000000000000000606082015250565b7f4552433732314d657461646174613a2055524920717565727920666f72206e6f60008201527f6e6578697374656e7420746f6b656e0000000000000000000000000000000000602082015250565b7f7b226e616d65223a202200000000000000000000000000000000000000000000600082015250565b7f4552433732313a20617070726f76616c20746f2063757272656e74206f776e6560008201527f7200000000000000000000000000000000000000000000000000000000000000602082015250565b7f646174613a6170706c69636174696f6e2f6a736f6e3b6261736536342c000000600082015250565b7f4552433732313a207472616e736665722063616c6c6572206973206e6f74206f60008201527f776e6572206e6f7220617070726f766564000000000000000000000000000000602082015250565b6134ea81612c9b565b81146134f557600080fd5b50565b61350181612cad565b811461350c57600080fd5b50565b61351881612cb9565b811461352357600080fd5b50565b61352f81612d05565b811461353a57600080fd5b5056fe416e204e465420772f20494420257320686173206265656e206d696e74656420746f2025734142434445464748494a4b4c4d4e4f505152535455565758595a6162636465666768696a6b6c6d6e6f707172737475767778797a303132333435363738392b2fa2646970667358221220b6f8ae5c85eade501cc895371425f356ab3884303f9e68fb09e1f62c93ecb77164736f6c634300080100333c73766720786d6c6e733d27687474703a2f2f7777772e77332e6f72672f323030302f73766727207072657365727665417370656374526174696f3d27784d696e594d696e206d656574272076696577426f783d273020302033353020333530273e3c7374796c653e2e62617365207b2066696c6c3a2077686974653b20666f6e742d66616d696c793a2073657269663b20666f6e742d73697a653a20323470783b207d3c2f7374796c653e3c726563742077696474683d273130302527206865696768743d2731303025272066696c6c3d27626c61636b27202f3e3c7465787420783d273530252720793d273530252720636c6173733d27626173652720646f6d696e616e742d626173656c696e653d276d6964646c652720746578742d616e63686f723d276d6964646c65273e",
  "linkReferences": {},
  "deployedLinkReferences": {}
}